:0C0249007F037E487DA1DDFEDEFCDFFAB5
:010255002286
:10017500E4F508F509120216C3E508648094815078
:100185001B750E03AB09AA087D017F011201E3056A
:0C01950009E5097002050812024980DC2F
:0101A100223B
:06023A00C2A58F80D2A7CF
:080240007F027EEFDEFEDFFC11
:010248002293
:0A026200C2A612023AC2A70202402F
:1001C500CFCDCFCECCCE1200427C007D0A120042AC
:0401D500ED2430FFE6
:0A01D900D2A612023AC2A7020240A9
:10020000AE07BE0104ED148006BE0209ED243F4492
:0602100080FF12026222D1
:100216007F381202627F0C1202627F061202627F30
:04022600010202626D
:0A026C00AC03120200AF040201D936
:0601A2008B248A2589264A
:1001A800120200E4FDAB24AA25A9268D82758300DE
:0C01B800120003FF60061201D90D80E95F
:0101C4002218
:0C0142007F0AEA24FFFDE434FFFC7E008D
:08014E008E0F8F108C118D1231
:100156007F017E00E4FBEBC39512E5116480F87421
:0E0166008098500AAC0FAD101200300B80E8EC
:010174002268
:0401E3008A0C8B0DEA
:1001E700120200AA0EEAD39400400D120142AC0C91
:0801F700AD0D1201C51A80EDE7
:0101FF0022DD
:10009700120200C3EA64809480400B7F2B1201D9BF
:1000A7008A188B19800E7F2D1201D9C3E49BF5198D
:1000B700E49AF518AA17EAD39400400D120142AC4E
:0900C70018AD191201C51A80EDF3
:0100D000220D
:0400D1008A1C8B1DDD
:1000D500120200AA1EEAD3940040297F101201449F
:1000E500AC1CAD1DCFCDCFCECCCE120042EF540F00
:1000F500FEC3940AEE5004243080022437FF120117
:04010500D91A80D1B2
:0101090022D3
:04010A008A218B2299
:10010E00120200AA23EAD394004028EA24FFFDE459
:10011E0034FFFC7F027E0012014EAC21AD22CFCD0A
:10012E00CFCECCCE120042EF54012430FF1201D9B3
:03013E001A80D252
:01014100229B
:0F022A007D027CEFEF4E6006DCFEDDFC80F6EF20
:0102390022A2
:03000000020256A3
:0C025600787FE4F6D8FD75812602017562
:10000300BB010CE58229F582E5833AF583E02250B2
:1000130006E92582F8E622BBFE06E92582F8E222FC
:0D002300E58229F582E5833AF583E4932216
:10003000EF8DF0A4A8F0CF8CF0A428CE8DF0A42EE4
:02004000FE229E
:10004200BC000BBE0029EF8DF084FFADF022E4CCA2
:10005200F875F008EF2FFFEE33FEEC33FCEE9DEC6B
:10006200984005FCEE9DFE0FD5F0E9E4CEFD22EDB1
:10007200F8F5F0EE8420D21CFEADF075F008EF2FFB
:10008200FFED33FD4007985006D5F0F222C398FDEC
:050092000FD5F0EA2289
:00000001FF
