:10017500120213750C037B077A017D017F011201C1
:10018500E07B2E7D047F0112024C750C037B867A81
:0A019500007D057F011201E080D912
:06022700C2A58F80D2A7E2
:08022D007F027EEFDEFEDFFC24
:0102350022A6
:0A024200C2A6120227C2A702022D75
:1001C200CFCDCFCECCCE1200427C007D0A120042AF
:0401D200ED2430FFE9
:0A01D600D2A6120227C2A702022DD2
:1001FD00AE07BE0104ED148006BE0209ED243F4496
:06020D0080FF12024222F4
:100213007F381202427F0C1202427F061202427F93
:040223000102024290
:0A024C00AC031201FDAF040201D65D
:06019F008B228A23892453
:1001A5001201FDE4FDAB22AA23A9248D82758300EB
:0C01B500120003FF60061201D60D80E965
:0101C100221B
:0C0142007F0AEA24FFFDE434FFFC7E008D
:08014E008E0D8F0E8C0F8D1039
:100156007F017E00E4FBEBC39510E50F6480F87425
:0E0166008098500AAC0DAD0E1200300B80E8F0
:010174002268
:0401E0008A0A8B0BF1
:1001E4001201FDAA0CEAD39400400D120142AC0A9C
:0801F400AD0B1201C21A80EDEF
:0101FC0022E0
:100097001201FDC3EA64809480400B7F2B1201D6C6
:1000A7008A168B17800E7F2D1201D6C3E49BF51796
:1000B700E49AF516AA15EAD39400400D120142AC52
:0900C70016AD171201C21A80EDFA
:0100D000220D
:0400D1008A1A8B1BE1
:1000D5001201FDAA1CEAD3940040297F10120144A5
:1000E500AC1AAD1BCFCDCFCECCCE120042EF540F04
:1000F500FEC3940AEE5004243080022437FF120117
:04010500D61A80D1B5
:0101090022D3
:04010A008A1F8B209D
:10010E001201FDAA21EAD394004028EA24FFFDE45F
:10011E0034FFFC7F027E0012014EAC1FAD20CFCD0E
:10012E00CFCECCCE120042EF54012430FF1201D6B6
:03013E001A80D252
:01014100229B
:03000000020236C3
:0C023600787FE4F6D8FD75812402017584
:10000300BB010CE58229F582E5833AF583E02250B2
:1000130006E92582F8E622BBFE06E92582F8E222FC
:0D002300E58229F582E5833AF583E4932216
:10003000EF8DF0A4A8F0CF8CF0A428CE8DF0A42EE4
:02004000FE229E
:10004200BC000BBE0029EF8DF084FFADF022E4CCA2
:10005200F875F008EF2FFFEE33FEEC33FCEE9DEC6B
:10006200984005FCEE9DFE0FD5F0E9E4CEFD22EDB1
:10007200F8F5F0EE8420D21CFEADF075F008EF2FFB
:10008200FFED33FD4007985006D5F0F222C398FDEC
:050092000FD5F0EA2289
:00000001FF
