:10089400E4F508120A58E508FB7A00750D017D019C
:1008A4007F01120A267F2C7E01120A430508E508FF
:1008B400C3940A40DE75080A120A58E508FB7A0058
:1008C400750D027D017F01120A267F2C7E01120A1A
:1008D400430508E508C3946440DE750864C3748066
:1008E4009481501D120A58E508FB7A00750D037DAA
:1008F400017F01120A267F2C7E01120A430508801B
:03090400DC80FE96
:060A7C00C2A58F80D2A785
:080A82007F027EEFDEFEDFFCC7
:010A8A002249
:0A0A9700C2A6120A7CC2A7020A825E
:100A0800CFCDCFCECCCE12083F7C007D0A12083F56
:040A1800ED2430FF9A
:0A0A1C00D2A6120A7CC2A7020A82C9
:100A58007F38120A977F0C120A977F06120A977F2F
:040A680001020A97E6
:100A6C00EDBF0103148002243F4480FF120A972239
:0A0AA100AC03120A6CAF04020A1C39
:0609E5008B238A24892502
:1009EB00120A6CE4FDAB23AA24A9258D8275830022
:0C09FB00120800FF6006120A1C0D80E9C3
:010A070022CC
:0C09B2007F0AEA24FFFDE434FFFC7E0015
:0809BE008E0E8F0F8C108D11BD
:1009C6007F017E00E4FBEBC39511E5106480F874AB
:0E09D6008098500AAC0EAD0F12082D0B80E871
:0109E40022F0
:040A26008A0B8B0CA0
:100A2A00120A6CAA0DEAD39400400D1209B2AC0B5B
:080A3A00AD0C120A081A80ED50
:010A42002291
:10090700120A6CC3EA64809480400B7F2B120A1C86
:100917008A178B18800E7F2D120A1CC3E49BF518CB
:10092700E49AF517AA16EAD39400400D1209B2AC5F
:0909370017AD18120A081A80ED30
:010940002294
:040941008A1B8B1C66
:10094500120A6CAA1DEAD3940040297F101209B43B
:10095500AC1BAD1CCFCDCFCECCCE12083FEF540F84
:10096500FEC3940AEE5004243080022437FF120A95
:040975001C1A80D1F7
:01097900225B
:04097A008A208B2123
:10097E00120A6CAA22EAD394004028EA24FFFDE46E
:10098E0034FFFC7F027E001209BEAC20AD21CFCD1C
:10099E00CFCECCCE12083FEF54012430FF120A1CEA
:0309AE001A80D2DA
:0109B1002223
:100A4300EF1FAC0670011E4C600A7D027CEFDCFEDA
:040A5300DDFC80EC5A
:010A5700227C
:03000000020A8B66
:0C0A8B00787FE4F6D8FD75812502089400
:10080000BB010CE58229F582E5833AF583E02250AD
:1008100006E92582F8E622BBFE06E92582F8E222F7
:0D082000E58229F582E5833AF583E4932211
:10082D00EF8DF0A4A8F0CF8CF0A428CE8DF0A42EDF
:02083D00FE2299
:10083F00BC000BBE0029EF8DF084FFADF022E4CC9D
:10084F00F875F008EF2FFFEE33FEEC33FCEE9DEC66
:10085F00984005FCEE9DFE0FD5F0E9E4CEFD22EDAC
:10086F00F8F5F0EE8420D21CFEADF075F008EF2FF6
:10087F00FFED33FD4007985006D5F0F222C398FDE7
:05088F000FD5F0EA2284
:00000001FF
