:10027D00E4FBFA7C007D0A1200970BBB00010AEF2C
:07028D004E70F0AE02AF035A
:010294002247
:1000CD00E4F508F5091202ABAF09AE0812027D8FF7
:1000DD000EAB09AA087D017F011202607F2C7E0103
:1000ED007D007C0012017B0509E50970020508D32E
:0A00FD0094FFE5086480948040CB76
:0101070022D5
:0602BF00C2A58F80D2A74A
:0802C5007F027EEFDEFEDFFC8C
:0102CD00220E
:0A02DA00C2A61202BFC2A70202C5AD
:10024200CFCDCFCECCCE1200427C007D0A1200422E
:04025200ED2430FF68
:0A025600D2A61202BFC2A70202C521
:10029500AE07BE0104ED148006BE0209ED243F44FD
:0602A50080FF1202DA22C4
:1002AB007F381202DA7F0C1202DA7F061202DA7F33
:0402BB00010202DA60
:0A02E400AC03120295AF04020256AB
:06021F008B248A258926CC
:10022500120295E4FDAB24AA25A9268D82758300CB
:0C023500120003FF60061202560D80E963
:01024100229A
:0C01EC007F0AEA24FFFDE434FFFC7E00E3
:0801F8008E0F8F108C118D1287
:100200007F017E00E4FBEBC39512E5116480F87476
:0E0210008098500AAC0FAD101200300B80E841
:01021E0022BD
:040260008A0C8B0D6C
:10026400120295AA0EEAD39400400D1201ECAC0CD4
:08027400AD0D1202421A80EDEB
:01027C00225F
:10010800120295C3EA64809480400B7F2B1202563A
:100118008A188B19800E7F2D120256C3E49BF5199D
:10012800E49AF518AA17EAD39400400D1201ECAC32
:0901380018AD191202421A80ED03
:01014100229B
:040142008A1C8B1D6B
:10014600120295AA1EEAD3940040297F101201EEEE
:10015600AC1CAD1DCFCDCFCECCCE120042EF540F8E
:10016600FEC3940AEE5004243080022437FF1202A4
:04017600561A80D1C4
:01017A002262
:0401B4008A218B22EF
:1001B800120295AA23EAD394004028EA24FFFDE41A
:1001C80034FFFC7F027E001201F8AC21AD22CFCDB6
:1001D800CFCECCCE120042EF54012430FF1202568B
:0301E8001A80D2A8
:0101EB0022F1
:08017B008F0D8E0C8D0B8C0A18
:10018300AF0DAE0CAD0BAC0AEC4D4E4F60227F02AF
:100193007EC7DEFEDFFC74FF250DF50DE50C34FF95
:1001A300F50CE50B34FFF50BE50A34FFF50A80D0B7
:0101B3002229
:030000000202CE2B
:0C02CE00787FE4F6D8FD7581260200CD93
:10000300BB010CE58229F582E5833AF583E02250B2
:1000130006E92582F8E622BBFE06E92582F8E222FC
:0D002300E58229F582E5833AF583E4932216
:10003000EF8DF0A4A8F0CF8CF0A428CE8DF0A42EE4
:02004000FE229E
:10004200BC000BBE0029EF8DF084FFADF022E4CCA2
:10005200F875F008EF2FFFEE33FEEC33FCEE9DEC6B
:10006200984005FCEE9DFE0FD5F0E9E4CEFD22EDB1
:10007200F8F5F0EE8420D21CFEADF075F008EF2FFB
:10008200FFED33FD4007985006D5F0F222C398FDEC
:050092000FD5F0EA2289
:10009700C2D5EC30E709B2D5E4C39DFDE49CFCEE84
:1000A70030E715B2D5E4C39FFFE49EFE120042C3BA
:1000B700E49DFDE49CFC800312004230D507C3E4B5
:0600C7009FFFE49EFE22F3
:00000001FF
