:1001980031322E3334353738393132333435373814
:1001A8000036373839303132333435363738393923
:0201B80039000C
:1001D8001202287BFF7A0179987D017F011201754F
:0D01E8007BFF7A0179A97D017F020201757C
:06023C00C2A58F80D2A7CD
:080242007F027EEFDEFEDFFC0F
:01024A002291
:0A025700C2A612023CC2A702024236
:1001BA00CFCDCFCECCCE1200427C007D0A120042B7
:0401CA00ED2430FFF1
:0A01CE00D2A612023CC2A7020242B0
:10021200AE07BE0104ED148006BE0209ED243F4480
:0602220080FF12025722CA
:100228007F381202577F0C1202577F061202577F3F
:040238000102025766
:0A026100AC03120212AF040201CE3A
:060175008B228A2389247D
:10017B00120212E4FDAB22AA23A9248D82758300FF
:0C018B00120003FF60061201CE0D80E997
:010197002245
:0C0142007F0AEA24FFFDE434FFFC7E008D
:08014E008E1E8F1F8C208D21F5
:100156007F017E00E4FBEBC39521E5206480F87403
:0E0166008098500AAC1EAD1F1200300B80E8CE
:010174002268
:0401F5008A118B12CE
:1001F900120212AA13EAD39400400D120142AC1163
:08020900AD121201BA1A80EDDA
:0102110022CA
:10009700120212C3EA64809480400B7F2B1201CEB8
:1000A7008A0D8B0E800E7F2D1201CEC3E49BF50EB9
:1000B700E49AF50DAA0CEAD39400400D120142AC64
:0900C7000DAD0E1201BA1A80ED14
:0100D000220D
:0400D1008A168B17E9
:1000D500120212AA18EAD3940040297F1012014493
:1000E500AC16AD17CFCDCFCECCCE120042EF540F0C
:1000F500FEC3940AEE5004243080022437FF120117
:04010500CE1A80D1BD
:0101090022D3
:04010A008A1B8B1CA5
:10010E00120212AA1DEAD394004028EA24FFFDE44D
:10011E0034FFFC7F027E0012014EAC1BAD1CCFCD16
:10012E00CFCECCCE120042EF54012430FF1201CEBE
:03013E001A80D252
:01014100229B
:0300000002024BAE
:0C024B00787FE4F6D8FD7581240201D80C
:10000300BB010CE58229F582E5833AF583E02250B2
:1000130006E92582F8E622BBFE06E92582F8E222FC
:0D002300E58229F582E5833AF583E4932216
:10003000EF8DF0A4A8F0CF8CF0A428CE8DF0A42EE4
:02004000FE229E
:10004200BC000BBE0029EF8DF084FFADF022E4CCA2
:10005200F875F008EF2FFFEE33FEEC33FCEE9DEC6B
:10006200984005FCEE9DFE0FD5F0E9E4CEFD22EDB1
:10007200F8F5F0EE8420D21CFEADF075F008EF2FFB
:10008200FFED33FD4007985006D5F0F222C398FDEC
:050092000FD5F0EA2289
:00000001FF
