:030C310025660035
:100AC3007535EC75345175339A753244120BDA75FA
:100AD30039FF753A0C753B3185353F85343E853397
:100AE3003D85323C7B007A0079221205DE7B007A59
:0C0AF3000079227D017F01120B7B80FE48
:060C0200C2A58F80D2A7FD
:080C08007F0B7EBEDEFEDFFC67
:010C100022C1
:0A0C1D00C2A6120C02C2A7020C08C6
:100B9E00CFCDCFCECCCE1204F77C007D0A1204F757
:040BAE00ED2430FF03
:0A0BB200D2A6120C02C2A7020C0822
:100BBC00AE07EEFB7A0064017004ED148009EB645F
:0E0BCC00024A7009ED243F4480FF120C1D22E6
:100BDA007F38120C1D7F0C120C1D7F06120C1D7F14
:040BEA0001020C1DDB
:0A0C2700AC03120BBCAF04020BB2C9
:060B7B008B368A37893831
:100B8100120BBCE4FDAB36AA37A9388D8275830000
:0C0B91001204A6FF6006120BB20D80E9F2
:010B9D002235
:0A0AFF00EF24FFFDEE34FFFC7F0A38
:080B09008E528F538C548D5560
:100B11007F017E00E4FBEBC39555E5546480F874D6
:0E0B21008098500AAC52AD531204E50B80E8E8
:010B2F0022A3
:040B57008A118B1262
:100B5B00120BBCAA13EAFF7E00D39400748094801E
:0F0B6B00400D120AFFAC11AD12120B9E1A80E65C
:010B7A002258
:040A3C008B828A839C
:100A4000120BBCC3E58364809480400D7F2B120B96
:100A5000B285830D85820E80107F2D120BB2C3E408
:100A60009582F50EE49583F50DAA0CEAFF7E00D37E
:100A7000940074809480400D120AFFAC0DAD0E12EC
:050A80000B9E1A80E648
:010A8500224E
:0409F1008A168B17C0
:1009F500120BBCAA18EAD39400748094804037EA9D
:100A050024FFFDE434FFFC7F107E00120B09AC16B9
:100A1500AD17CFCDCFCECCCE1204F7EF540FFEC31A
:100A2500940A74809480EE5004243080022437FFA9
:060A3500120BB21A80BF93
:010A3B002298
:040A86008A1B8B1C20
:100A8A00120BBCAA1DEAFF7E00D3940074809480E6
:100A9A004026EF24FFFDEE34FFFC7F02120B09AC67
:100AAA001BAD1CCFCDCFCECCCE1204F7EF54012410
:080ABA0030FF120BB21A80CDCF
:010AC2002211
:100BEE00EF4E600F7D0B7CBEDCFEDDFCEF1F70F068
:030BFE001E80ED69
:010C010022D0
:10058200E54D2439F8E6054D2278363007027839F0
:10059200E475F00112054C02048D2000EB7F2ED28F
:1005A200008018EF540F2490D43440D4FF30040B51
:1005B200EF24BFB41A0050032461FFE54E60021518
:1005C2004E0551E5517002055030070D7836E4753D
:1005D200F00112054CEF0204D3020B307403D20770
:1005E2008003E4C207F54D8B368A378938E4F54E2D
:1005F200F550F551E54E60077F201205BD80F57577
:100602004FFFC201C200C202C203C205C206C20833
:1006120012058BFF700D3007057F001205CEAF511A
:10062200AE5022B4255FC2D5C20412058BFF24D07E
:10063200B40A00501A75F00A784E30D50508B6FF94
:100642000106C6A426F620D5047002D20380D9245E
:10065200CFB41A00EF5004C2E5D2040208BBD201A3
:1006620080C6D20080C0D20280BCD2D580BAD20568
:1006720080B47F201205BD2002077401B54E0040F0
:10068200F1120582FF1205BD0205F6D208D20680DC
:1006920095120582FB120582FA120582F94A4B7005
:1006A2000679B27A097BFF20022EE54E602A7E008F
:1006B2008E827583001204A660060EEE654F70F0FE
:1006C200C2D5EBC0E0EAC0E0E9C0E0EE12091BD0FF
:1006D200E0F9D0E0FAD0E0FB12048DFF60AAEBC093
:1006E200E0EAC0E0E9C0E01205BDD0E02401F9D0A3
:1006F200E03400FAD0E0FBE54F0460DCD54FD9804E
:1007020087D20280A21208FE60F7E54F7001041240
:100712000003A94F600DE54F600914F54F1209A5BA
:10072200EF60F3EA30E702F404C3995077EAF42564
:100732004F0430E701E404F54F800D1208FE60C15A
:10074200EA054F254F120003EA784CF630E701E440
:10075200254F04D54F042005011412091BE4C0E003
:100762001209A5784CE6601320E70714F61205A5D6
:10077200802204F6D0E014C0E07F001205A5E54F08
:10078200600712059C154F800B30050312059CD0A3
:10079200E00205F6D0E00480C51208FE60A0E54F35
:1007A20004120003784CEAF6E54F200502600104CA
:0507B200240412091BE4
:1007B70074FF04C0E01209A51205A5E54F20050244
:1007C700600312059CD0E0B54FE87F451205AF786E
:1007D7004CE67F2B30E7047F2DF404C0E01205BD03
:1007E700D0E075F00A84C0F01205A6D0E01205A685
:1007F7000205F6791080027908C206C2088008D27D
:10080700D5790A8004790AC2D5E54F047002F54FFD
:10081700E4FAFDFEFF120582FC7B08200113120596
:1008270082FD7B1030000A120582FE120582FF7BD3
:1008370020EC3382D592D55013C3E43000069FFFD6
:10084700E49EFEE42001039DFDE49CFCE4CBF8C29A
:1008570001EC700CCFCECDCCE824F8F870F38017FC
:10086700C3EF33FFEE33FEED33FDEC33FCEB33FB2D
:10087700994002FB0FD8E9EB300105F8D0E0C448F6
:10088700B201C0E00AEC4D4E4F78207B0070C2EAFF
:10089700B54F0040BCC0E012091DD0F0D0E02001E8
:1008A70004C4C0E0C4B201C0F01205A6D0F0D5F070
:1008B700EB0205F612055C06935307FA5806644CDB
:1008C70006604207FE4F08064408064906794308B2
:1008D7000C55073D46079B4507074709D250066851
:1008E7002D066C2E068F2B067023068D2009BB2A3A
:1008F70006284800000687E54FB4FF03754F061228
:100907000582FC120582FD120582FE120582FF7820
:1009170045020032790AA2D5200314300509B9101F
:10092700020404B9080104A2D520060250010420DC
:1009370002689202B54E005034C0E07F20300319A0
:100947007F30A20272067205500F120974C202C2EA
:1009570006C205C2087F30800F300503E9C0E012E8
:1009670005BD300503D0E0F9D0E0B54ECC30051712
:100977007F30B9100C1205BD7F583004077F78808F
:1009870003B908031205BD3002057F2D0205BD7F9F
:10099700202008F87F2B2006F322920280CF7F00C9
:1009A700B4070050052445F8E6FF22286E756C6CE5
:1009B7002900D2011205823001F8C201784E30D5E4
:1009C7000108F60206282D504349581205822403D0
:1009D700B405004001E49009CD931205AE743A12B4
:0A09E70005AED203754E040207FAB4
:10000300F920E72824F950037907E4F42402FB18C4
:10001300DBFDE624FB5014E9600DE4F618E604F674
:0F002300B40A08E4F6D9F57401F60A22C2D52210
:10003200ED33EC3392D5FA602AB4FF33EDC2E77B9D
:10004200FF60067A007957E4227A00796020D504AD
:100052007A00795B224E614E002B494E46002D49B3
:100062004E4600E47A08F608DAFC7B00740722E8C0
:10007200C0E0ECC0E0EDC0E0EEC0E0EFC0E0EA7549
:10008200F010A4CAABF075F04DA42BFBE435F0FCE4
:10009200EA2410FAEB34C5FBEC34D9FCEDC2E7FFDD
:1000A20075F056A4F42411C5F0F434C58FF0A42AD7
:1000B200E5F03BE43CF620E714120403D0E0FFD065
:1000C200E0FED0E0FDD0E0FC1203368014F404120E
:1000D2000403D0E0FFD0E0FED0E0FDD0E0FC12024D
:1000E2002DD0E0F8E6FAEDD2E7CD33EC332482FBF3
:1000F200E4C3CF33CFCE33CECD33CD33DBF37B0767
:1001020075F00A846004F6081B0AE5F0F6088FF021
:10011200740AA4FFACF08EF0740AA42CFEACF0506A
:10012200010C8DF0740AA42CFDE435F0F608DBDE38
:030132007407222D
:10013500020478E86480F8E933E83360110460F07C
:10014500ED33EC337009E8FCE9FDEAFEEBFF220430
:1001550060DED3EB9FEA9EE99DE8C2E78CF0C2F72B
:1001650095F0400CE8CCF8E9CDF9EACEFAEBCFFBF7
:1001750012044385D0F05804700320D5B3E8047009
:10018500075002B2D502048292D5EC0460F7E4CCA4
:10019500C0E0C398F8603B94186008400DD0E0FBC0
:1001A50002045AE4FBFAC9FC8028E830E406E4C9F5
:1001B500FBE4CAFCE830E305E4C9CACBFCE8540714
:1001C5006010F8C3E913F9EA13FAEB13FBEC13FC1F
:1001D500D8F130F52FC3E49CFCEF9BFFEE9AFEEDC2
:1001E50099FDD0E0FBEF4E4D4C701222DB0302046B
:1001F5007FEC2CFCEF33FFEE33FEED33FDED30E706
:10020500EB02045AEF2BFFEE3AFEED39FDD0E0FB91
:1002150050130BBB0003020482ED13FDEE13FEEF3A
:0802250013FFEC13FC02045A64
:10022D00EC4D6011E8497017ED33EC3304600DE4CB
:10023D00FCFFFEFD22E933E8330470F80204781266
:10024D00044358046009E4CC248150062850090267
:10025D00048228400302047FC0E0EB4A7044B98059
:10026D0006D0E0FB02046EEF4E701CBD8008EBFF64
:10027D00EAFEE9FD80EBE98DF0A4FEE5F002031640
:10028D00E9CDF9EAFEEBFFEF89F0A4FCE5F0CE89AC
:10029D00F0A42EFFE435F0CD89F0A42DFEE435F069
:1002AD008067EF4E7005BD80D780C3EF8BF0A4AC97
:1002BD00F0EE8BF0A42CFCE435F0F8EF8AF0A42CD2
:1002CD00E5F038FCE433CB8DF0A42CFCE5F03BF8E5
:1002DD00EE8AF0A42CFCE5F038F8E433CF89F0A4D5
:1002ED002CFCE5F038CF3400CE89F0A42FFFE5F0DB
:1002FD003EFEE433C98DF0A42EFEE5F039CD8AF033
:10030D00A42FFFE5F03EFEE43DFD33D0E0FB5007AA
:10031D000BBB000F020482EC2CFCEF33FFEE33FE1F
:06032D00ED33FD02045A4D
:10033300020482EC5D046005E8590470030204784A
:10034300120443580460F6EC4860F2EC7004FDFEBE
:10035300FF22C860DB2481C85009C398600250069D
:1003630002047F9850CAF582E9294B4A7005AB8293
:1003730002046E75F0007C1A7880C3EF9BEE9AED51
:1003830099400DC3EF9BFFEE9AFEED99FDE842F015
:10039300DC23ACF0D0E0FFD0E0FED0E0FDAB822068
:1003A300E7101BEB60BAEC2CFCEF33FFEE33FEEDF2
:1003B30033FD02045AE803F830E705C0F075F00096
:1003C300EF2FFFEE33FEED33FD40B830E7C280AAD6
:1003D3003F8000004120000042C80000447A000032
:1003E300461C400047C35000497424004B189680B4
:1003F3004CBEBC205A0E1BCA6753C21C749DC5AEAB
:10040300FB60065407601C2323120431EB5438604D
:100413000912041D12042C12022DECF8EDF9EEFA68
:10042300EFCB22EB12042C80F1543803241C9003ED
:10043300D3FE93FC0EEE93FD0EEE930ECE93FF22AE
:10044300E9D2E7C933E833F892D5EDD2E7CD33ECFF
:0704530033FC5002B2D52278
:10045A00EC30E7100FBF000C0EBE00080DBD000403
:10046A000BEB6014A2D5EB13FCED92E7FD2274FFAF
:10047A00FCFDFEFF22E480F8A2D574FF13FC7D8008
:03048A00E480EF1C
:03000000020C11DE
:0C0C1100787FE4F6D8FD758155020AC317
:10048D00BB010689828A83E0225002E722BBFE026D
:09049D00E32289828A83E49322A0
:1004A600BB010CE58229F582E5833AF583E022500B
:1004B60006E92582F8E622BBFE06E92582F8E22255
:0D04C600E58229F582E5833AF583E493226F
:1004D300BB010689828A83F0225002F722BBFE0108
:0204E300F32202
:1004E500EF8DF0A4A8F0CF8CF0A428CE8DF0A42E2B
:0204F500FE22E5
:1004F700BC000BBE0029EF8DF084FFADF022E4CCE9
:10050700F875F008EF2FFFEE33FEEC33FCEE9DECB1
:10051700984005FCEE9DFE0FD5F0E9E4CEFD22EDF7
:10052700F8F5F0EE8420D21CFEADF075F008EF2F41
:10053700FFED33FD4007985006D5F0F222C398FD32
:050547000FD5F0EA22CF
:10054C00FAE6FB0808E6F925F0F618E6CA3AF622B0
:10055C00D083D082F8E4937012740193700DA3A32E
:10056C0093F8740193F5828883E473740293686042
:06057C00EFA3A3A380DF42
:100B3000EFB40A07740D120B3B740A309811A89990
:100B4000B8130CC2983098FDA899C298B811F63025
:070B500099FDC299F59922FD
:00000001FF
