:10016900120250E4F508F509750E03AB09AA087DDA
:10017900017F011201CD7F2C7E011202640509E580
:100189000970020508C3E5086480948140DA120207
:030199005080FE95
:06027800C2A58F80D2A791
:08027E007F0B7EBEDEFEDFFCFB
:010286002255
:0A029300C2A6120278C2A702027E82
:10021400CFCDCFCECCCE1200427C007D0A1200425C
:04022400ED2430FF96
:0A022800D2A6120278C2A702027EDD
:10023200AE07EEFB7A0064017004ED148009EB64F2
:0E024200024A7009ED243F4480FF120293220D
:100250007F381202937F0C1202937F061202937F63
:040260000102029302
:0A029D00AC03120232AF0402022883
:0601F1008B248A258926FB
:1001F700120232E4FDAB24AA25A9268D827583005D
:0C020700120003FF60061202280D80E9BF
:0102130022C8
:0A019C00EF24FFFDEE34FFFC7F0AA4
:0801A6008E0F8F108C118D12D9
:1001AE007F017E00E4FBEBC39512E5116480F874C9
:0E01BE008098500AAC0FAD101200300B80E894
:0101CC002210
:0401CD008A0C8B0D00
:1001D100120232AA0EEAFF7E00D39400748094804A
:0F01E100400D12019CAC0CAD0D1202141A80E6F9
:0101F00022EC
:0400E2008B828A8300
:1000E600120232C3E58364809480400D7F2B120296
:1000F6002885831885821980107F2D120228C3E473
:100106009582F519E49583F518AA17EAFF7E00D3C0
:10011600940074809480400D12019CAC18AD1912A5
:0501260002141A80E63E
:01012B0022B1
:040097008A1C8B1D17
:10009B00120232AA1EEAD39400748094804037EA8D
:1000AB0024FFFDE434FFFC7F107E001201A6AC1C84
:1000BB00AD1DCFCDCFCECCCE120042EF540FFEC331
:1000CB00940A74809480EE5004243080022437FF0D
:0600DB001202281A80BF8A
:0100E10022FC
:04012C008A218B2277
:10013000120232AA23EAFF7E00D3940074809480D6
:100140004026EF24FFFDEE34FFFC7F021201A6AC37
:1001500021AD22CFCDCFCECCCE120042EF54012420
:0801600030FF1202281A80CDC5
:010168002274
:10026400EF4E600F7D0B7CBEDCFEDDFCEF1F70F0FB
:030274001E80EDFC
:010277002264
:0300000002028772
:0C028700787FE4F6D8FD7581260201693D
:10000300BB010CE58229F582E5833AF583E02250B2
:1000130006E92582F8E622BBFE06E92582F8E222FC
:0D002300E58229F582E5833AF583E4932216
:10003000EF8DF0A4A8F0CF8CF0A428CE8DF0A42EE4
:02004000FE229E
:10004200BC000BBE0029EF8DF084FFADF022E4CCA2
:10005200F875F008EF2FFFEE33FEEC33FCEE9DEC6B
:10006200984005FCEE9DFE0FD5F0E9E4CEFD22EDB1
:10007200F8F5F0EE8420D21CFEADF075F008EF2FFB
:10008200FFED33FD4007985006D5F0F222C398FDEC
:050092000FD5F0EA2289
:00000001FF
